{"contracts/CeloCatchCore.sol":{"CeloCatchCore":{"abi":[{"inputs":[{"internalType":"address","name":"_rodContract","type":"address"}],"stateMutability":"nonpayable","type":"constructor"},{"inputs":[{"internalType":"address","name":"owner","type":"address"}],"name":"OwnableInvalidOwner","type":"error"},{"inputs":[{"internalType":"address","name":"account","type":"address"}],"name":"OwnableUnauthorizedAccount","type":"error"},{"anonymous":false,"inputs":[{"indexed":true,"internalType":"address","name":"player","type":"address"},{"indexed":false,"internalType":"uint8","name":"fishType","type":"uint8"},{"indexed":false,"internalType":"uint256","name":"xp","type":"uint256"}],"name":"FishCaught","type":"event"},{"anonymous":false,"inputs":[{"indexed":true,"internalType":"address","name":"previousOwner","type":"address"},{"indexed":true,"internalType":"address","name":"newOwner","type":"address"}],"name":"OwnershipTransferred","type":"event"},{"inputs":[{"internalType":"uint256","name":"rodId","type":"uint256"}],"name":"equipRod","outputs":[],"stateMutability":"nonpayable","type":"function"},{"inputs":[],"name":"owner","outputs":[{"internalType":"address","name":"","type":"address"}],"stateMutability":"view","type":"function"},{"inputs":[{"internalType":"address","name":"","type":"address"}],"name":"playerRod","outputs":[{"internalType":"uint256","name":"","type":"uint256"}],"stateMutability":"view","type":"function"},{"inputs":[{"internalType":"address","name":"","type":"address"}],"name":"playerXP","outputs":[{"internalType":"uint256","name":"","type":"uint256"}],"stateMutability":"view","type":"function"},{"inputs":[],"name":"recordCatch","outputs":[],"stateMutability":"nonpayable","type":"function"},{"inputs":[],"name":"renounceOwnership","outputs":[],"stateMutability":"nonpayable","type":"function"},{"inputs":[],"name":"rodContract","outputs":[{"internalType":"contract IFishingRod","name":"","type":"address"}],"stateMutability":"view","type":"function"},{"inputs":[{"internalType":"address","name":"newOwner","type":"address"}],"name":"transferOwnership","outputs":[],"stateMutability":"nonpayable","type":"function"}],"evm":{"bytecode":{"linkReferences":{},"object":"608060405234801561000f575f80fd5b5060405161065038038061065083398101604081905261002e916100d1565b338061005357604051631e4fbdf760e01b81525f600482015260240160405180910390fd5b61005c81610082565b50600180546001600160a01b0319166001600160a01b03929092169190911790556100fe565b5f80546001600160a01b038381166001600160a01b0319831681178455604051919092169283917f8be0079c531659141344cd1fd0a4f28419497f9722a3daafe3b4186f6b6457e09190a35050565b5f602082840312156100e1575f80fd5b81516001600160a01b03811681146100f7575f80fd5b9392505050565b6105458061010b5f395ff3fe608060405234801561000f575f80fd5b5060043610610085575f3560e01c80639d9b4cbf116100585780639d9b4cbf146100d7578063b362008714610104578063cb1c1d1514610117578063f2fde38b14610136575f80fd5b806313a28b1e14610089578063715018a6146100935780638da5cb5b1461009b5780639d5c93ca146100c4575b5f80fd5b610091610149565b005b6100916102d3565b5f546001600160a01b03165b6040516001600160a01b0390911681526020015b60405180910390f35b6100916100d2366004610470565b6102e6565b6100f66100e5366004610487565b60026020525f908152604090205481565b6040519081526020016100bb565b6001546100a7906001600160a01b031681565b6100f6610125366004610487565b60036020525f908152604090205481565b610091610144366004610487565b6103b8565b604080514260208201526bffffffffffffffffffffffff193360601b16918101919091524460548201525f90606490607401604051602081830303815290604052805190602001205f1c61019d91906104b4565b90505f80602d8310156101b6575060019050600a610214565b60468310156101cb5750600290506019610214565b60558310156101e0575060039050604b610214565b605e8310156101f55750600490506096610214565b606383101561020b57506005905061015e610214565b50600690506103e85b335f9081526003602052604081205460021461024e57335f9081526003602081905260409091205414610247575f610251565b60c8610251565b60325b60ff16905061026081836104d3565b335f908152600260205260408120805490919061027e9084906104d3565b909155503390507fd2156d3ec3efe2f1158812b1d7a7f89dd85e31c62febc719e72da1238bcb0305846102b184866104d3565b6040805160ff909316835260208301919091520160405180910390a250505050565b6102db6103f5565b6102e45f610421565b565b600154604051627eeac760e11b8152336004820152602481018390525f916001600160a01b03169062fdd58e90604401602060405180830381865afa158015610331573d5f803e3d5ffd5b505050506040513d601f19601f8201168201806040525081019061035591906104f8565b116103a75760405162461bcd60e51b815260206004820152601760248201527f546964616b2070756e79612070616e63696e6720696e6900000000000000000060448201526064015b60405180910390fd5b335f90815260036020526040902055565b6103c06103f5565b6001600160a01b0381166103e957604051631e4fbdf760e01b81525f600482015260240161039e565b6103f281610421565b50565b5f546001600160a01b031633146102e45760405163118cdaa760e01b815233600482015260240161039e565b5f80546001600160a01b038381166001600160a01b0319831681178455604051919092169283917f8be0079c531659141344cd1fd0a4f28419497f9722a3daafe3b4186f6b6457e09190a35050565b5f60208284031215610480575f80fd5b5035919050565b5f60208284031215610497575f80fd5b81356001600160a01b03811681146104ad575f80fd5b9392505050565b5f826104ce57634e487b7160e01b5f52601260045260245ffd5b500690565b808201808211156104f257634e487b7160e01b5f52601160045260245ffd5b92915050565b5f60208284031215610508575f80fd5b505191905056fea2646970667358221220191b4a99d8bab1f2722cfa5a431e55d6be55281b313d1cab0712af22b0a2a09964736f6c63430008180033","opcodes":"PUSH1 0x80 PUSH1 0x40 MSTORE CALLVALUE DUP1 ISZERO PUSH2 0xF JUMPI PUSH0 DUP1 REVERT JUMPDEST POP PUSH1 0x40 MLOAD PUSH2 0x650 CODESIZE SUB DUP1 PUSH2 0x650 DUP4 CODECOPY DUP2 ADD PUSH1 0x40 DUP2 SWAP1 MSTORE PUSH2 0x2E SWAP2 PUSH2 0xD1 JUMP JUMPDEST CALLER DUP1 PUSH2 0x53 JUMPI PUSH1 0x40 MLOAD PUSH4 0x1E4FBDF7 PUSH1 0xE0 SHL DUP2 MSTORE PUSH0 PUSH1 0x4 DUP3 ADD MSTORE PUSH1 0x24 ADD PUSH1 0x40 MLOAD DUP1 SWAP2 SUB SWAP1 REVERT JUMPDEST PUSH2 0x5C DUP2 PUSH2 0x82 JUMP JUMPDEST POP PUSH1 0x1 DUP1 SLOAD PUSH1 0x1 PUSH1 0x1 PUSH1 0xA0 SHL SUB NOT AND PUSH1 0x1 PUSH1 0x1 PUSH1 0xA0 SHL SUB SWAP3 SWAP1 SWAP3 AND SWAP2 SWAP1 SWAP2 OR SWAP1 SSTORE PUSH2 0xFE JUMP JUMPDEST PUSH0 DUP1 SLOAD PUSH1 0x1 PUSH1 0x1 PUSH1 0xA0 SHL SUB DUP4 DUP2 AND PUSH1 0x1 PUSH1 0x1 PUSH1 0xA0 SHL SUB NOT DUP4 AND DUP2 OR DUP5 SSTORE PUSH1 0x40 MLOAD SWAP2 SWAP1 SWAP3 AND SWAP3 DUP4 SWAP2 PUSH32 0x8BE0079C531659141344CD1FD0A4F28419497F9722A3DAAFE3B4186F6B6457E0 SWAP2 SWAP1 LOG3 POP POP JUMP JUMPDEST PUSH0 PUSH1 0x20 DUP3 DUP5 SUB SLT ISZERO PUSH2 0xE1 JUMPI PUSH0 DUP1 REVERT JUMPDEST DUP2 MLOAD PUSH1 0x1 PUSH1 0x1 PUSH1 0xA0 SHL SUB DUP2 AND DUP2 EQ PUSH2 0xF7 JUMPI PUSH0 DUP1 REVERT JUMPDEST SWAP4 SWAP3 POP POP POP JUMP JUMPDEST PUSH2 0x545 DUP1 PUSH2 0x10B PUSH0 CODECOPY PUSH0 RETURN INVALID PUSH1 0x80 PUSH1 0x40 MSTORE CALLVALUE DUP1 ISZERO PUSH2 0xF JUMPI PUSH0 DUP1 REVERT JUMPDEST POP PUSH1 0x4 CALLDATASIZE LT PUSH2 0x85 JUMPI PUSH0 CALLDATALOAD PUSH1 0xE0 SHR DUP1 PUSH4 0x9D9B4CBF GT PUSH2 0x58 JUMPI DUP1 PUSH4 0x9D9B4CBF EQ PUSH2 0xD7 JUMPI DUP1 PUSH4 0xB3620087 EQ PUSH2 0x104 JUMPI DUP1 PUSH4 0xCB1C1D15 EQ PUSH2 0x117 JUMPI DUP1 PUSH4 0xF2FDE38B EQ PUSH2 0x136 JUMPI PUSH0 DUP1 REVERT JUMPDEST DUP1 PUSH4 0x13A28B1E EQ PUSH2 0x89 JUMPI DUP1 PUSH4 0x715018A6 EQ PUSH2 0x93 JUMPI DUP1 PUSH4 0x8DA5CB5B EQ PUSH2 0x9B JUMPI DUP1 PUSH4 0x9D5C93CA EQ PUSH2 0xC4 JUMPI JUMPDEST PUSH0 DUP1 REVERT JUMPDEST PUSH2 0x91 PUSH2 0x149 JUMP JUMPDEST STOP JUMPDEST PUSH2 0x91 PUSH2 0x2D3 JUMP JUMPDEST PUSH0 SLOAD PUSH1 0x1 PUSH1 0x1 PUSH1 0xA0 SHL SUB AND JUMPDEST PUSH1 0x40 MLOAD PUSH1 0x1 PUSH1 0x1 PUSH1 0xA0 SHL SUB SWAP1 SWAP2 AND DUP2 MSTORE PUSH1 0x20 ADD JUMPDEST PUSH1 0x40 MLOAD DUP1 SWAP2 SUB SWAP1 RETURN JUMPDEST PUSH2 0x91 PUSH2 0xD2 CALLDATASIZE PUSH1 0x4 PUSH2 0x470 JUMP JUMPDEST PUSH2 0x2E6 JUMP JUMPDEST PUSH2 0xF6 PUSH2 0xE5 CALLDATASIZE PUSH1 0x4 PUSH2 0x487 JUMP JUMPDEST PUSH1 0x2 PUSH1 0x20 MSTORE PUSH0 SWAP1 DUP2 MSTORE PUSH1 0x40 SWAP1 KECCAK256 SLOAD DUP2 JUMP JUMPDEST PUSH1 0x40 MLOAD SWAP1 DUP2 MSTORE PUSH1 0x20 ADD PUSH2 0xBB JUMP JUMPDEST PUSH1 0x1 SLOAD PUSH2 0xA7 SWAP1 PUSH1 0x1 PUSH1 0x1 PUSH1 0xA0 SHL SUB AND DUP2 JUMP JUMPDEST PUSH2 0xF6 PUSH2 0x125 CALLDATASIZE PUSH1 0x4 PUSH2 0x487 JUMP JUMPDEST PUSH1 0x3 PUSH1 0x20 MSTORE PUSH0 SWAP1 DUP2 MSTORE PUSH1 0x40 SWAP1 KECCAK256 SLOAD DUP2 JUMP JUMPDEST PUSH2 0x91 PUSH2 0x144 CALLDATASIZE PUSH1 0x4 PUSH2 0x487 JUMP JUMPDEST PUSH2 0x3B8 JUMP JUMPDEST PUSH1 0x40 DUP1 MLOAD TIMESTAMP PUSH1 0x20 DUP3 ADD MSTORE PUSH12 0xFFFFFFFFFFFFFFFFFFFFFFFF NOT CALLER PUSH1 0x60 SHL AND SWAP2 DUP2 ADD SWAP2 SWAP1 SWAP2 MSTORE PREVRANDAO PUSH1 0x54 DUP3 ADD MSTORE PUSH0 SWAP1 PUSH1 0x64 SWAP1 PUSH1 0x74 ADD PUSH1 0x40 MLOAD PUSH1 0x20 DUP2 DUP4 SUB SUB DUP2 MSTORE SWAP1 PUSH1 0x40 MSTORE DUP1 MLOAD SWAP1 PUSH1 0x20 ADD KECCAK256 PUSH0 SHR PUSH2 0x19D SWAP2 SWAP1 PUSH2 0x4B4 JUMP JUMPDEST SWAP1 POP PUSH0 DUP1 PUSH1 0x2D DUP4 LT ISZERO PUSH2 0x1B6 JUMPI POP PUSH1 0x1 SWAP1 POP PUSH1 0xA PUSH2 0x214 JUMP JUMPDEST PUSH1 0x46 DUP4 LT ISZERO PUSH2 0x1CB JUMPI POP PUSH1 0x2 SWAP1 POP PUSH1 0x19 PUSH2 0x214 JUMP JUMPDEST PUSH1 0x55 DUP4 LT ISZERO PUSH2 0x1E0 JUMPI POP PUSH1 0x3 SWAP1 POP PUSH1 0x4B PUSH2 0x214 JUMP JUMPDEST PUSH1 0x5E DUP4 LT ISZERO PUSH2 0x1F5 JUMPI POP PUSH1 0x4 SWAP1 POP PUSH1 0x96 PUSH2 0x214 JUMP JUMPDEST PUSH1 0x63 DUP4 LT ISZERO PUSH2 0x20B JUMPI POP PUSH1 0x5 SWAP1 POP PUSH2 0x15E PUSH2 0x214 JUMP JUMPDEST POP PUSH1 0x6 SWAP1 POP PUSH2 0x3E8 JUMPDEST CALLER PUSH0 SWAP1 DUP2 MSTORE PUSH1 0x3 PUSH1 0x20 MSTORE PUSH1 0x40 DUP2 KECCAK256 SLOAD PUSH1 0x2 EQ PUSH2 0x24E JUMPI CALLER PUSH0 SWAP1 DUP2 MSTORE PUSH1 0x3 PUSH1 0x20 DUP2 SWAP1 MSTORE PUSH1 0x40 SWAP1 SWAP2 KECCAK256 SLOAD EQ PUSH2 0x247 JUMPI PUSH0 PUSH2 0x251 JUMP JUMPDEST PUSH1 0xC8 PUSH2 0x251 JUMP JUMPDEST PUSH1 0x32 JUMPDEST PUSH1 0xFF AND SWAP1 POP PUSH2 0x260 DUP2 DUP4 PUSH2 0x4D3 JUMP JUMPDEST CALLER PUSH0 SWAP1 DUP2 MSTORE PUSH1 0x2 PUSH1 0x20 MSTORE PUSH1 0x40 DUP2 KECCAK256 DUP1 SLOAD SWAP1 SWAP2 SWAP1 PUSH2 0x27E SWAP1 DUP5 SWAP1 PUSH2 0x4D3 JUMP JUMPDEST SWAP1 SWAP2 SSTORE POP CALLER SWAP1 POP PUSH32 0xD2156D3EC3EFE2F1158812B1D7A7F89DD85E31C62FEBC719E72DA1238BCB0305 DUP5 PUSH2 0x2B1 DUP5 DUP7 PUSH2 0x4D3 JUMP JUMPDEST PUSH1 0x40 DUP1 MLOAD PUSH1 0xFF SWAP1 SWAP4 AND DUP4 MSTORE PUSH1 0x20 DUP4 ADD SWAP2 SWAP1 SWAP2 MSTORE ADD PUSH1 0x40 MLOAD DUP1 SWAP2 SUB SWAP1 LOG2 POP POP POP POP JUMP JUMPDEST PUSH2 0x2DB PUSH2 0x3F5 JUMP JUMPDEST PUSH2 0x2E4 PUSH0 PUSH2 0x421 JUMP JUMPDEST JUMP JUMPDEST PUSH1 0x1 SLOAD PUSH1 0x40 MLOAD PUSH3 0x7EEAC7 PUSH1 0xE1 SHL DUP2 MSTORE CALLER PUSH1 0x4 DUP3 ADD MSTORE PUSH1 0x24 DUP2 ADD DUP4 SWAP1 MSTORE PUSH0 SWAP2 PUSH1 0x1 PUSH1 0x1 PUSH1 0xA0 SHL SUB AND SWAP1 PUSH3 0xFDD58E SWAP1 PUSH1 0x44 ADD PUSH1 0x20 PUSH1 0x40 MLOAD DUP1 DUP4 SUB DUP2 DUP7 GAS STATICCALL ISZERO DUP1 ISZERO PUSH2 0x331 JUMPI RETURNDATASIZE PUSH0 DUP1 RETURNDATACOPY RETURNDATASIZE PUSH0 REVERT JUMPDEST POP POP POP POP PUSH1 0x40 MLOAD RETURNDATASIZE PUSH1 0x1F NOT PUSH1 0x1F DUP3 ADD AND DUP3 ADD DUP1 PUSH1 0x40 MSTORE POP DUP2 ADD SWAP1 PUSH2 0x355 SWAP2 SWAP1 PUSH2 0x4F8 JUMP JUMPDEST GT PUSH2 0x3A7 JUMPI PUSH1 0x40 MLOAD PUSH3 0x461BCD PUSH1 0xE5 SHL DUP2 MSTORE PUSH1 0x20 PUSH1 0x4 DUP3 ADD MSTORE PUSH1 0x17 PUSH1 0x24 DUP3 ADD MSTORE PUSH32 0x546964616B2070756E79612070616E63696E6720696E69000000000000000000 PUSH1 0x44 DUP3 ADD MSTORE PUSH1 0x64 ADD JUMPDEST PUSH1 0x40 MLOAD DUP1 SWAP2 SUB SWAP1 REVERT JUMPDEST CALLER PUSH0 SWAP1 DUP2 MSTORE PUSH1 0x3 PUSH1 0x20 MSTORE PUSH1 0x40 SWAP1 KECCAK256 SSTORE JUMP JUMPDEST PUSH2 0x3C0 PUSH2 0x3F5 JUMP JUMPDEST PUSH1 0x1 PUSH1 0x1 PUSH1 0xA0 SHL SUB DUP2 AND PUSH2 0x3E9 JUMPI PUSH1 0x40 MLOAD PUSH4 0x1E4FBDF7 PUSH1 0xE0 SHL DUP2 MSTORE PUSH0 PUSH1 0x4 DUP3 ADD MSTORE PUSH1 0x24 ADD PUSH2 0x39E JUMP JUMPDEST PUSH2 0x3F2 DUP2 PUSH2 0x421 JUMP JUMPDEST POP JUMP JUMPDEST PUSH0 SLOAD PUSH1 0x1 PUSH1 0x1 PUSH1 0xA0 SHL SUB AND CALLER EQ PUSH2 0x2E4 JUMPI PUSH1 0x40 MLOAD PUSH4 0x118CDAA7 PUSH1 0xE0 SHL DUP2 MSTORE CALLER PUSH1 0x4 DUP3 ADD MSTORE PUSH1 0x24 ADD PUSH2 0x39E JUMP JUMPDEST PUSH0 DUP1 SLOAD PUSH1 0x1 PUSH1 0x1 PUSH1 0xA0 SHL SUB DUP4 DUP2 AND PUSH1 0x1 PUSH1 0x1 PUSH1 0xA0 SHL SUB NOT DUP4 AND DUP2 OR DUP5 SSTORE PUSH1 0x40 MLOAD SWAP2 SWAP1 SWAP3 AND SWAP3 DUP4 SWAP2 PUSH32 0x8BE0079C531659141344CD1FD0A4F28419497F9722A3DAAFE3B4186F6B6457E0 SWAP2 SWAP1 LOG3 POP POP JUMP JUMPDEST PUSH0 PUSH1 0x20 DUP3 DUP5 SUB SLT ISZERO PUSH2 0x480 JUMPI PUSH0 DUP1 REVERT JUMPDEST POP CALLDATALOAD SWAP2 SWAP1 POP JUMP JUMPDEST PUSH0 PUSH1 0x20 DUP3 DUP5 SUB SLT ISZERO PUSH2 0x497 JUMPI PUSH0 DUP1 REVERT JUMPDEST DUP2 CALLDATALOAD PUSH1 0x1 PUSH1 0x1 PUSH1 0xA0 SHL SUB DUP2 AND DUP2 EQ PUSH2 0x4AD JUMPI PUSH0 DUP1 REVERT JUMPDEST SWAP4 SWAP3 POP POP POP JUMP JUMPDEST PUSH0 DUP3 PUSH2 0x4CE JUMPI PUSH4 0x4E487B71 PUSH1 0xE0 SHL PUSH0 MSTORE PUSH1 0x12 PUSH1 0x4 MSTORE PUSH1 0x24 PUSH0 REVERT JUMPDEST POP MOD SWAP1 JUMP JUMPDEST DUP1 DUP3 ADD DUP1 DUP3 GT ISZERO PUSH2 0x4F2 JUMPI PUSH4 0x4E487B71 PUSH1 0xE0 SHL PUSH0 MSTORE PUSH1 0x11 PUSH1 0x4 MSTORE PUSH1 0x24 PUSH0 REVERT JUMPDEST SWAP3 SWAP2 POP POP JUMP JUMPDEST PUSH0 PUSH1 0x20 DUP3 DUP5 SUB SLT ISZERO PUSH2 0x508 JUMPI PUSH0 DUP1 REVERT JUMPDEST POP MLOAD SWAP2 SWAP1 POP JUMP INVALID LOG2 PUSH5 0x6970667358 0x22 SLT KECCAK256 NOT SHL BLOBBASEFEE SWAP10 0xD8 0xBA 0xB1 CALLCODE PUSH19 0x2CFA5A431E55D6BE55281B313D1CAB0712AF22 0xB0 LOG2 LOG0 SWAP10 PUSH5 0x736F6C6343 STOP ADDMOD XOR STOP CALLER "},"methodIdentifiers":{"equipRod(uint256)":"9d5c93ca","owner()":"8da5cb5b","playerRod(address)":"cb1c1d15","playerXP(address)":"9d9b4cbf","recordCatch()":"13a28b1e","renounceOwnership()":"715018a6","rodContract()":"b3620087","transferOwnership(address)":"f2fde38b"}}}}}