{
  "_format": "hh-sol-artifact-1",
  "contractName": "CeloCatchCore",
  "sourceName": "contracts/CeloCatchCore.sol",
  "abi": [
    {
      "inputs": [
        {
          "internalType": "address",
          "name": "_rodContract",
          "type": "address"
        }
      ],
      "stateMutability": "nonpayable",
      "type": "constructor"
    },
    {
      "inputs": [
        {
          "internalType": "address",
          "name": "owner",
          "type": "address"
        }
      ],
      "name": "OwnableInvalidOwner",
      "type": "error"
    },
    {
      "inputs": [
        {
          "internalType": "address",
          "name": "account",
          "type": "address"
        }
      ],
      "name": "OwnableUnauthorizedAccount",
      "type": "error"
    },
    {
      "anonymous": false,
      "inputs": [
        {
          "indexed": true,
          "internalType": "address",
          "name": "player",
          "type": "address"
        },
        {
          "indexed": false,
          "internalType": "uint8",
          "name": "fishType",
          "type": "uint8"
        },
        {
          "indexed": false,
          "internalType": "uint256",
          "name": "xp",
          "type": "uint256"
        }
      ],
      "name": "FishCaught",
      "type": "event"
    },
    {
      "anonymous": false,
      "inputs": [
        {
          "indexed": true,
          "internalType": "address",
          "name": "previousOwner",
          "type": "address"
        },
        {
          "indexed": true,
          "internalType": "address",
          "name": "newOwner",
          "type": "address"
        }
      ],
      "name": "OwnershipTransferred",
      "type": "event"
    },
    {
      "inputs": [
        {
          "internalType": "uint256",
          "name": "rodId",
          "type": "uint256"
        }
      ],
      "name": "equipRod",
      "outputs": [],
      "stateMutability": "nonpayable",
      "type": "function"
    },
    {
      "inputs": [],
      "name": "owner",
      "outputs": [
        {
          "internalType": "address",
          "name": "",
          "type": "address"
        }
      ],
      "stateMutability": "view",
      "type": "function"
    },
    {
      "inputs": [
        {
          "internalType": "address",
          "name": "",
          "type": "address"
        }
      ],
      "name": "playerRod",
      "outputs": [
        {
          "internalType": "uint256",
          "name": "",
          "type": "uint256"
        }
      ],
      "stateMutability": "view",
      "type": "function"
    },
    {
      "inputs": [
        {
          "internalType": "address",
          "name": "",
          "type": "address"
        }
      ],
      "name": "playerXP",
      "outputs": [
        {
          "internalType": "uint256",
          "name": "",
          "type": "uint256"
        }
      ],
      "stateMutability": "view",
      "type": "function"
    },
    {
      "inputs": [],
      "name": "recordCatch",
      "outputs": [],
      "stateMutability": "nonpayable",
      "type": "function"
    },
    {
      "inputs": [],
      "name": "renounceOwnership",
      "outputs": [],
      "stateMutability": "nonpayable",
      "type": "function"
    },
    {
      "inputs": [],
      "name": "rodContract",
      "outputs": [
        {
          "internalType": "contract IFishingRod",
          "name": "",
          "type": "address"
        }
      ],
      "stateMutability": "view",
      "type": "function"
    },
    {
      "inputs": [
        {
          "internalType": "address",
          "name": "newOwner",
          "type": "address"
        }
      ],
      "name": "transferOwnership",
      "outputs": [],
      "stateMutability": "nonpayable",
      "type": "function"
    }
  ],
  "bytecode": "0x608060405234801561000f575f80fd5b5060405161065038038061065083398101604081905261002e916100d1565b338061005357604051631e4fbdf760e01b81525f600482015260240160405180910390fd5b61005c81610082565b50600180546001600160a01b0319166001600160a01b03929092169190911790556100fe565b5f80546001600160a01b038381166001600160a01b0319831681178455604051919092169283917f8be0079c531659141344cd1fd0a4f28419497f9722a3daafe3b4186f6b6457e09190a35050565b5f602082840312156100e1575f80fd5b81516001600160a01b03811681146100f7575f80fd5b9392505050565b6105458061010b5f395ff3fe608060405234801561000f575f80fd5b5060043610610085575f3560e01c80639d9b4cbf116100585780639d9b4cbf146100d7578063b362008714610104578063cb1c1d1514610117578063f2fde38b14610136575f80fd5b806313a28b1e14610089578063715018a6146100935780638da5cb5b1461009b5780639d5c93ca146100c4575b5f80fd5b610091610149565b005b6100916102d3565b5f546001600160a01b03165b6040516001600160a01b0390911681526020015b60405180910390f35b6100916100d2366004610470565b6102e6565b6100f66100e5366004610487565b60026020525f908152604090205481565b6040519081526020016100bb565b6001546100a7906001600160a01b031681565b6100f6610125366004610487565b60036020525f908152604090205481565b610091610144366004610487565b6103b8565b604080514260208201526bffffffffffffffffffffffff193360601b16918101919091524460548201525f90606490607401604051602081830303815290604052805190602001205f1c61019d91906104b4565b90505f80602d8310156101b6575060019050600a610214565b60468310156101cb5750600290506019610214565b60558310156101e0575060039050604b610214565b605e8310156101f55750600490506096610214565b606383101561020b57506005905061015e610214565b50600690506103e85b335f9081526003602052604081205460021461024e57335f9081526003602081905260409091205414610247575f610251565b60c8610251565b60325b60ff16905061026081836104d3565b335f908152600260205260408120805490919061027e9084906104d3565b909155503390507fd2156d3ec3efe2f1158812b1d7a7f89dd85e31c62febc719e72da1238bcb0305846102b184866104d3565b6040805160ff909316835260208301919091520160405180910390a250505050565b6102db6103f5565b6102e45f610421565b565b600154604051627eeac760e11b8152336004820152602481018390525f916001600160a01b03169062fdd58e90604401602060405180830381865afa158015610331573d5f803e3d5ffd5b505050506040513d601f19601f8201168201806040525081019061035591906104f8565b116103a75760405162461bcd60e51b815260206004820152601760248201527f546964616b2070756e79612070616e63696e6720696e6900000000000000000060448201526064015b60405180910390fd5b335f90815260036020526040902055565b6103c06103f5565b6001600160a01b0381166103e957604051631e4fbdf760e01b81525f600482015260240161039e565b6103f281610421565b50565b5f546001600160a01b031633146102e45760405163118cdaa760e01b815233600482015260240161039e565b5f80546001600160a01b038381166001600160a01b0319831681178455604051919092169283917f8be0079c531659141344cd1fd0a4f28419497f9722a3daafe3b4186f6b6457e09190a35050565b5f60208284031215610480575f80fd5b5035919050565b5f60208284031215610497575f80fd5b81356001600160a01b03811681146104ad575f80fd5b9392505050565b5f826104ce57634e487b7160e01b5f52601260045260245ffd5b500690565b808201808211156104f257634e487b7160e01b5f52601160045260245ffd5b92915050565b5f60208284031215610508575f80fd5b505191905056fea2646970667358221220191b4a99d8bab1f2722cfa5a431e55d6be55281b313d1cab0712af22b0a2a09964736f6c63430008180033",
  "linkReferences": {},
  "deployedLinkReferences": {}
}