{
  "_format": "hh-sol-artifact-1",
  "contractName": "FishingRod",
  "sourceName": "contracts/FishingRod.sol",
  "abi": [
    {
      "inputs": [],
      "stateMutability": "nonpayable",
      "type": "constructor"
    },
    {
      "inputs": [
        {
          "internalType": "address",
          "name": "sender",
          "type": "address"
        },
        {
          "internalType": "uint256",
          "name": "balance",
          "type": "uint256"
        },
        {
          "internalType": "uint256",
          "name": "needed",
          "type": "uint256"
        },
        {
          "internalType": "uint256",
          "name": "tokenId",
          "type": "uint256"
        }
      ],
      "name": "ERC1155InsufficientBalance",
      "type": "error"
    },
    {
      "inputs": [
        {
          "internalType": "address",
          "name": "approver",
          "type": "address"
        }
      ],
      "name": "ERC1155InvalidApprover",
      "type": "error"
    },
    {
      "inputs": [
        {
          "internalType": "uint256",
          "name": "idsLength",
          "type": "uint256"
        },
        {
          "internalType": "uint256",
          "name": "valuesLength",
          "type": "uint256"
        }
      ],
      "name": "ERC1155InvalidArrayLength",
      "type": "error"
    },
    {
      "inputs": [
        {
          "internalType": "address",
          "name": "operator",
          "type": "address"
        }
      ],
      "name": "ERC1155InvalidOperator",
      "type": "error"
    },
    {
      "inputs": [
        {
          "internalType": "address",
          "name": "receiver",
          "type": "address"
        }
      ],
      "name": "ERC1155InvalidReceiver",
      "type": "error"
    },
    {
      "inputs": [
        {
          "internalType": "address",
          "name": "sender",
          "type": "address"
        }
      ],
      "name": "ERC1155InvalidSender",
      "type": "error"
    },
    {
      "inputs": [
        {
          "internalType": "address",
          "name": "operator",
          "type": "address"
        },
        {
          "internalType": "address",
          "name": "owner",
          "type": "address"
        }
      ],
      "name": "ERC1155MissingApprovalForAll",
      "type": "error"
    },
    {
      "inputs": [
        {
          "internalType": "address",
          "name": "owner",
          "type": "address"
        }
      ],
      "name": "OwnableInvalidOwner",
      "type": "error"
    },
    {
      "inputs": [
        {
          "internalType": "address",
          "name": "account",
          "type": "address"
        }
      ],
      "name": "OwnableUnauthorizedAccount",
      "type": "error"
    },
    {
      "anonymous": false,
      "inputs": [
        {
          "indexed": true,
          "internalType": "address",
          "name": "account",
          "type": "address"
        },
        {
          "indexed": true,
          "internalType": "address",
          "name": "operator",
          "type": "address"
        },
        {
          "indexed": false,
          "internalType": "bool",
          "name": "approved",
          "type": "bool"
        }
      ],
      "name": "ApprovalForAll",
      "type": "event"
    },
    {
      "anonymous": false,
      "inputs": [
        {
          "indexed": true,
          "internalType": "address",
          "name": "previousOwner",
          "type": "address"
        },
        {
          "indexed": true,
          "internalType": "address",
          "name": "newOwner",
          "type": "address"
        }
      ],
      "name": "OwnershipTransferred",
      "type": "event"
    },
    {
      "anonymous": false,
      "inputs": [
        {
          "indexed": true,
          "internalType": "address",
          "name": "operator",
          "type": "address"
        },
        {
          "indexed": true,
          "internalType": "address",
          "name": "from",
          "type": "address"
        },
        {
          "indexed": true,
          "internalType": "address",
          "name": "to",
          "type": "address"
        },
        {
          "indexed": false,
          "internalType": "uint256[]",
          "name": "ids",
          "type": "uint256[]"
        },
        {
          "indexed": false,
          "internalType": "uint256[]",
          "name": "values",
          "type": "uint256[]"
        }
      ],
      "name": "TransferBatch",
      "type": "event"
    },
    {
      "anonymous": false,
      "inputs": [
        {
          "indexed": true,
          "internalType": "address",
          "name": "operator",
          "type": "address"
        },
        {
          "indexed": true,
          "internalType": "address",
          "name": "from",
          "type": "address"
        },
        {
          "indexed": true,
          "internalType": "address",
          "name": "to",
          "type": "address"
        },
        {
          "indexed": false,
          "internalType": "uint256",
          "name": "id",
          "type": "uint256"
        },
        {
          "indexed": false,
          "internalType": "uint256",
          "name": "value",
          "type": "uint256"
        }
      ],
      "name": "TransferSingle",
      "type": "event"
    },
    {
      "anonymous": false,
      "inputs": [
        {
          "indexed": false,
          "internalType": "string",
          "name": "value",
          "type": "string"
        },
        {
          "indexed": true,
          "internalType": "uint256",
          "name": "id",
          "type": "uint256"
        }
      ],
      "name": "URI",
      "type": "event"
    },
    {
      "inputs": [
        {
          "internalType": "address",
          "name": "account",
          "type": "address"
        },
        {
          "internalType": "uint256",
          "name": "id",
          "type": "uint256"
        }
      ],
      "name": "balanceOf",
      "outputs": [
        {
          "internalType": "uint256",
          "name": "",
          "type": "uint256"
        }
      ],
      "stateMutability": "view",
      "type": "function"
    },
    {
      "inputs": [
        {
          "internalType": "address[]",
          "name": "accounts",
          "type": "address[]"
        },
        {
          "internalType": "uint256[]",
          "name": "ids",
          "type": "uint256[]"
        }
      ],
      "name": "balanceOfBatch",
      "outputs": [
        {
          "internalType": "uint256[]",
          "name": "",
          "type": "uint256[]"
        }
      ],
      "stateMutability": "view",
      "type": "function"
    },
    {
      "inputs": [
        {
          "internalType": "uint256",
          "name": "fromId",
          "type": "uint256"
        },
        {
          "internalType": "uint256",
          "name": "toId",
          "type": "uint256"
        }
      ],
      "name": "burnAndUpgrade",
      "outputs": [],
      "stateMutability": "nonpayable",
      "type": "function"
    },
    {
      "inputs": [
        {
          "internalType": "uint256",
          "name": "id",
          "type": "uint256"
        }
      ],
      "name": "buyRod",
      "outputs": [],
      "stateMutability": "payable",
      "type": "function"
    },
    {
      "inputs": [
        {
          "internalType": "address",
          "name": "account",
          "type": "address"
        },
        {
          "internalType": "address",
          "name": "operator",
          "type": "address"
        }
      ],
      "name": "isApprovedForAll",
      "outputs": [
        {
          "internalType": "bool",
          "name": "",
          "type": "bool"
        }
      ],
      "stateMutability": "view",
      "type": "function"
    },
    {
      "inputs": [],
      "name": "owner",
      "outputs": [
        {
          "internalType": "address",
          "name": "",
          "type": "address"
        }
      ],
      "stateMutability": "view",
      "type": "function"
    },
    {
      "inputs": [
        {
          "internalType": "uint256",
          "name": "",
          "type": "uint256"
        }
      ],
      "name": "price",
      "outputs": [
        {
          "internalType": "uint256",
          "name": "",
          "type": "uint256"
        }
      ],
      "stateMutability": "view",
      "type": "function"
    },
    {
      "inputs": [],
      "name": "renounceOwnership",
      "outputs": [],
      "stateMutability": "nonpayable",
      "type": "function"
    },
    {
      "inputs": [
        {
          "internalType": "address",
          "name": "from",
          "type": "address"
        },
        {
          "internalType": "address",
          "name": "to",
          "type": "address"
        },
        {
          "internalType": "uint256[]",
          "name": "ids",
          "type": "uint256[]"
        },
        {
          "internalType": "uint256[]",
          "name": "values",
          "type": "uint256[]"
        },
        {
          "internalType": "bytes",
          "name": "data",
          "type": "bytes"
        }
      ],
      "name": "safeBatchTransferFrom",
      "outputs": [],
      "stateMutability": "nonpayable",
      "type": "function"
    },
    {
      "inputs": [
        {
          "internalType": "address",
          "name": "from",
          "type": "address"
        },
        {
          "internalType": "address",
          "name": "to",
          "type": "address"
        },
        {
          "internalType": "uint256",
          "name": "id",
          "type": "uint256"
        },
        {
          "internalType": "uint256",
          "name": "value",
          "type": "uint256"
        },
        {
          "internalType": "bytes",
          "name": "data",
          "type": "bytes"
        }
      ],
      "name": "safeTransferFrom",
      "outputs": [],
      "stateMutability": "nonpayable",
      "type": "function"
    },
    {
      "inputs": [
        {
          "internalType": "address",
          "name": "operator",
          "type": "address"
        },
        {
          "internalType": "bool",
          "name": "approved",
          "type": "bool"
        }
      ],
      "name": "setApprovalForAll",
      "outputs": [],
      "stateMutability": "nonpayable",
      "type": "function"
    },
    {
      "inputs": [
        {
          "internalType": "bytes4",
          "name": "interfaceId",
          "type": "bytes4"
        }
      ],
      "name": "supportsInterface",
      "outputs": [
        {
          "internalType": "bool",
          "name": "",
          "type": "bool"
        }
      ],
      "stateMutability": "view",
      "type": "function"
    },
    {
      "inputs": [
        {
          "internalType": "address",
          "name": "newOwner",
          "type": "address"
        }
      ],
      "name": "transferOwnership",
      "outputs": [],
      "stateMutability": "nonpayable",
      "type": "function"
    },
    {
      "inputs": [
        {
          "internalType": "uint256",
          "name": "",
          "type": "uint256"
        }
      ],
      "name": "uri",
      "outputs": [
        {
          "internalType": "string",
          "name": "",
          "type": "string"
        }
      ],
      "stateMutability": "view",
      "type": "function"
    },
    {
      "inputs": [],
      "name": "withdraw",
      "outputs": [],
      "stateMutability": "nonpayable",
      "type": "function"
    }
  ],
  "bytecode": "0x608060405234801562000010575f80fd5b503360405180606001604052806028815260200162001778602891396200003781620000d7565b506001600160a01b0381166200006657604051631e4fbdf760e01b81525f600482015260240160405180910390fd5b6200007181620000e9565b506004602052674563918244f400007f91da3fd0782e51c6b3986e9e672fd566868e71f3dbc2d6c2cd6fbb3e361af2a75560035f52678ac7230489e800007f2e174c10e159ea99b867ce3205125c24a42d128804e4070ed6fcc8cc98166aa055620002a4565b6002620000e58282620001d8565b5050565b600380546001600160a01b038381166001600160a01b0319831681179093556040519116919082907f8be0079c531659141344cd1fd0a4f28419497f9722a3daafe3b4186f6b6457e0905f90a35050565b634e487b7160e01b5f52604160045260245ffd5b600181811c908216806200016357607f821691505b6020821081036200018257634e487b7160e01b5f52602260045260245ffd5b50919050565b601f821115620001d357805f5260205f20601f840160051c81016020851015620001af5750805b601f840160051c820191505b81811015620001d0575f8155600101620001bb565b50505b505050565b81516001600160401b03811115620001f457620001f46200013a565b6200020c816200020584546200014e565b8462000188565b602080601f83116001811462000242575f84156200022a5750858301515b5f19600386901b1c1916600185901b1785556200029c565b5f85815260208120601f198616915b82811015620002725788860151825594840194600190910190840162000251565b50858210156200029057878501515f19600388901b60f8161c191681555b505060018460011b0185555b505050505050565b6114c680620002b25f395ff3fe6080604052600436106100e3575f3560e01c80633ccfd60b11610087578063a22cb46511610057578063a22cb4651461026d578063e985e9c51461028c578063f242432a146102d3578063f2fde38b146102f2575f80fd5b80633ccfd60b146101f25780634e1273f414610206578063715018a6146102325780638da5cb5b14610246575f80fd5b806317baa392116100c257806317baa3921461017457806326a49e37146101895780632eb2c2d6146101b45780633a0a752e146101d3575f80fd5b8062fdd58e146100e757806301ffc9a7146101195780630e89341c14610148575b5f80fd5b3480156100f2575f80fd5b50610106610101366004610e85565b610311565b6040519081526020015b60405180910390f35b348015610124575f80fd5b50610138610133366004610ec2565b610338565b6040519015158152602001610110565b348015610153575f80fd5b50610167610162366004610ee4565b610387565b6040516101109190610f3e565b610187610182366004610ee4565b610419565b005b348015610194575f80fd5b506101066101a3366004610ee4565b60046020525f908152604090205481565b3480156101bf575f80fd5b506101876101ce366004611090565b610490565b3480156101de575f80fd5b506101876101ed366004611133565b6104af565b3480156101fd575f80fd5b50610187610526565b348015610211575f80fd5b50610225610220366004611153565b610557565b6040516101109190611247565b34801561023d575f80fd5b50610187610622565b348015610251575f80fd5b506003546040516001600160a01b039091168152602001610110565b348015610278575f80fd5b50610187610287366004611259565b610635565b348015610297575f80fd5b506101386102a6366004611292565b6001600160a01b039182165f90815260016020908152604080832093909416825291909152205460ff1690565b3480156102de575f80fd5b506101876102ed3660046112c3565b610640565b3480156102fd575f80fd5b5061018761030c366004611323565b610656565b5f818152602081815260408083206001600160a01b03861684529091529020545b92915050565b5f6001600160e01b03198216636cdb3d1360e11b148061036857506001600160e01b031982166303a24d0760e21b145b8061033257506301ffc9a760e01b6001600160e01b0319831614610332565b6060600280546103969061133c565b80601f01602080910402602001604051908101604052809291908181526020018280546103c29061133c565b801561040d5780601f106103e45761010080835404028352916020019161040d565b820191905f5260205f20905b8154815290600101906020018083116103f057829003601f168201915b50505050509050919050565b6001811115610472575f818152600460205260409020543410156104725760405162461bcd60e51b815260206004820152600b60248201526a4b7572616e672043656c6f60a81b60448201526064015b60405180910390fd5b61048d3382600160405180602001604052805f815250610690565b50565b61049b335b866106f4565b6104a8858585858561076c565b5050505050565b60036104bb3384610311565b10156104fb5760405162461bcd60e51b815260206004820152600f60248201526e427574756820332070616e63696e6760881b6044820152606401610469565b610507338360036107cc565b6105223382600160405180602001604052805f815250610690565b5050565b61052e610833565b60405133904780156108fc02915f818181858888f1935050505015801561048d573d5f803e3d5ffd5b606081518351146105885781518351604051635b05999160e01b815260048101929092526024820152604401610469565b5f835167ffffffffffffffff8111156105a3576105a3610f50565b6040519080825280602002602001820160405280156105cc578160200160208202803683370190505b5090505f5b845181101561061a576020808202860101516105f590602080840287010151610311565b82828151811061060757610607611374565b60209081029190910101526001016105d1565b509392505050565b61062a610833565b6106335f610860565b565b6105223383836108b1565b61064933610495565b6104a8858585858561096e565b61065e610833565b6001600160a01b03811661068757604051631e4fbdf760e01b81525f6004820152602401610469565b61048d81610860565b6001600160a01b0384166106b957604051632bfa23e760e11b81525f6004820152602401610469565b604080516001808252602082018690528183019081526060820185905260808201909252906106ec5f87848487846109fb565b505050505050565b816001600160a01b0316816001600160a01b03161415801561073b57506001600160a01b038082165f9081526001602090815260408083209386168352929052205460ff16155b156105225760405163711bec9160e11b81526001600160a01b03808416600483015282166024820152604401610469565b6001600160a01b03841661079557604051632bfa23e760e11b81525f6004820152602401610469565b6001600160a01b0385166107bd57604051626a0d4560e21b81525f6004820152602401610469565b6104a8858585858560016109fb565b6001600160a01b0383166107f457604051626a0d4560e21b81525f6004820152602401610469565b604080516001808252602082018590528183019081526060820184905260a082019092525f608082018181529192916104a891879185908590836109fb565b6003546001600160a01b031633146106335760405163118cdaa760e01b8152336004820152602401610469565b600380546001600160a01b038381166001600160a01b0319831681179093556040519116919082907f8be0079c531659141344cd1fd0a4f28419497f9722a3daafe3b4186f6b6457e0905f90a35050565b6001600160a01b0383166108da57604051631f18c42760e11b81525f6004820152602401610469565b6001600160a01b0382166109025760405162ced3e160e81b81525f6004820152602401610469565b6001600160a01b038381165f81815260016020908152604080832094871680845294825291829020805460ff191686151590811790915591519182527f17307eab39ab6107e8899845ad3d59bd9653f200f220920489ca2b5937696c31910160405180910390a3505050565b6001600160a01b03841661099757604051632bfa23e760e11b81525f6004820152602401610469565b6001600160a01b0385166109bf57604051626a0d4560e21b81525f6004820152602401610469565b604080516001808252602082018690528183019081526060820185905260808201909252906109f287878484875f6109fb565b50505050505050565b610a0786868686610a53565b6001600160a01b038516156106ec57338115610a3057610a2b818888888888610c62565b6109f2565b60208581015190850151610a48838a8a85858a610d83565b505050505050505050565b8051825114610a825781518151604051635b05999160e01b815260048101929092526024820152604401610469565b335f5b8351811015610b84576020818102858101820151908501909101516001600160a01b03881615610b36575f828152602081815260408083206001600160a01b038c16845290915290205481811015610b10576040516303dee4c560e01b81526001600160a01b038a166004820152602481018290526044810183905260648101849052608401610469565b5f838152602081815260408083206001600160a01b038d16845290915290209082900390555b6001600160a01b03871615610b7a575f828152602081815260408083206001600160a01b038b16845290915281208054839290610b74908490611388565b90915550505b5050600101610a85565b508251600103610c045760208301515f906020840151909150856001600160a01b0316876001600160a01b0316846001600160a01b03167fc3d58168c5ae7397731d063d5bbf3d657854427343f4c083240f7aacaa2d0f628585604051610bf5929190918252602082015260400190565b60405180910390a450506104a8565b836001600160a01b0316856001600160a01b0316826001600160a01b03167f4a39dc06d4c0dbc64b70af90fd698a233a518aa5d07e595d983b8c0526c8f7fb8686604051610c539291906113a7565b60405180910390a45050505050565b6001600160a01b0384163b156106ec5760405163bc197c8160e01b81526001600160a01b0385169063bc197c8190610ca690899089908890889088906004016113d4565b6020604051808303815f875af1925050508015610ce0575060408051601f3d908101601f19168201909252610cdd91810190611431565b60015b610d47573d808015610d0d576040519150601f19603f3d011682016040523d82523d5f602084013e610d12565b606091505b5080515f03610d3f57604051632bfa23e760e11b81526001600160a01b0386166004820152602401610469565b805160208201fd5b6001600160e01b0319811663bc197c8160e01b146109f257604051632bfa23e760e11b81526001600160a01b0386166004820152602401610469565b6001600160a01b0384163b156106ec5760405163f23a6e6160e01b81526001600160a01b0385169063f23a6e6190610dc7908990899088908890889060040161144c565b6020604051808303815f875af1925050508015610e01575060408051601f3d908101601f19168201909252610dfe91810190611431565b60015b610e2e573d808015610d0d576040519150601f19603f3d011682016040523d82523d5f602084013e610d12565b6001600160e01b0319811663f23a6e6160e01b146109f257604051632bfa23e760e11b81526001600160a01b0386166004820152602401610469565b80356001600160a01b0381168114610e80575f80fd5b919050565b5f8060408385031215610e96575f80fd5b610e9f83610e6a565b946020939093013593505050565b6001600160e01b03198116811461048d575f80fd5b5f60208284031215610ed2575f80fd5b8135610edd81610ead565b9392505050565b5f60208284031215610ef4575f80fd5b5035919050565b5f81518084525f5b81811015610f1f57602081850181015186830182015201610f03565b505f602082860101526020601f19601f83011685010191505092915050565b602081525f610edd6020830184610efb565b634e487b7160e01b5f52604160045260245ffd5b604051601f8201601f1916810167ffffffffffffffff81118282101715610f8d57610f8d610f50565b604052919050565b5f67ffffffffffffffff821115610fae57610fae610f50565b5060051b60200190565b5f82601f830112610fc7575f80fd5b81356020610fdc610fd783610f95565b610f64565b8083825260208201915060208460051b870101935086841115610ffd575f80fd5b602086015b848110156110195780358352918301918301611002565b509695505050505050565b5f82601f830112611033575f80fd5b813567ffffffffffffffff81111561104d5761104d610f50565b611060601f8201601f1916602001610f64565b818152846020838601011115611074575f80fd5b816020850160208301375f918101602001919091529392505050565b5f805f805f60a086880312156110a4575f80fd5b6110ad86610e6a565b94506110bb60208701610e6a565b9350604086013567ffffffffffffffff808211156110d7575f80fd5b6110e389838a01610fb8565b945060608801359150808211156110f8575f80fd5b61110489838a01610fb8565b93506080880135915080821115611119575f80fd5b5061112688828901611024565b9150509295509295909350565b5f8060408385031215611144575f80fd5b50508035926020909101359150565b5f8060408385031215611164575f80fd5b823567ffffffffffffffff8082111561117b575f80fd5b818501915085601f83011261118e575f80fd5b8135602061119e610fd783610f95565b82815260059290921b840181019181810190898411156111bc575f80fd5b948201945b838610156111e1576111d286610e6a565b825294820194908201906111c1565b965050860135925050808211156111f6575f80fd5b5061120385828601610fb8565b9150509250929050565b5f815180845260208085019450602084015f5b8381101561123c57815187529582019590820190600101611220565b509495945050505050565b602081525f610edd602083018461120d565b5f806040838503121561126a575f80fd5b61127383610e6a565b915060208301358015158114611287575f80fd5b809150509250929050565b5f80604083850312156112a3575f80fd5b6112ac83610e6a565b91506112ba60208401610e6a565b90509250929050565b5f805f805f60a086880312156112d7575f80fd5b6112e086610e6a565b94506112ee60208701610e6a565b93506040860135925060608601359150608086013567ffffffffffffffff811115611317575f80fd5b61112688828901611024565b5f60208284031215611333575f80fd5b610edd82610e6a565b600181811c9082168061135057607f821691505b60208210810361136e57634e487b7160e01b5f52602260045260245ffd5b50919050565b634e487b7160e01b5f52603260045260245ffd5b8082018082111561033257634e487b7160e01b5f52601160045260245ffd5b604081525f6113b9604083018561120d565b82810360208401526113cb818561120d565b95945050505050565b6001600160a01b0386811682528516602082015260a0604082018190525f906113ff9083018661120d565b8281036060840152611411818661120d565b905082810360808401526114258185610efb565b98975050505050505050565b5f60208284031215611441575f80fd5b8151610edd81610ead565b6001600160a01b03868116825285166020820152604081018490526060810183905260a0608082018190525f9061148590830184610efb565b97965050505050505056fea26469706673582212209fb5c4d81e53b0ecc4c1512a98c682ba4f649b6d61b6fe079e191e777a4a32c564736f6c6343000818003368747470733a2f2f6170692e63656c6f63617463682e636f6d2f726f64732f7b69647d2e6a736f6e",
  "linkReferences": {},
  "deployedLinkReferences": {}
}