{
  "_format": "hh-sol-artifact-1",
  "contractName": "CeloCatchNFT",
  "sourceName": "contracts/CeloCatchNFT.sol",
  "abi": [
    {
      "inputs": [
        {
          "internalType": "address",
          "name": "_core",
          "type": "address"
        }
      ],
      "stateMutability": "nonpayable",
      "type": "constructor"
    },
    {
      "inputs": [
        {
          "internalType": "address",
          "name": "account",
          "type": "address"
        },
        {
          "internalType": "uint256",
          "name": "id",
          "type": "uint256"
        }
      ],
      "name": "balanceOf",
      "outputs": [
        {
          "internalType": "uint256",
          "name": "",
          "type": "uint256"
        }
      ],
      "stateMutability": "view",
      "type": "function"
    },
    {
      "inputs": [],
      "name": "core",
      "outputs": [
        {
          "internalType": "contract ICore",
          "name": "",
          "type": "address"
        }
      ],
      "stateMutability": "view",
      "type": "function"
    },
    {
      "inputs": [
        {
          "internalType": "address",
          "name": "",
          "type": "address"
        },
        {
          "internalType": "uint256",
          "name": "",
          "type": "uint256"
        }
      ],
      "name": "hasMinted",
      "outputs": [
        {
          "internalType": "bool",
          "name": "",
          "type": "bool"
        }
      ],
      "stateMutability": "view",
      "type": "function"
    },
    {
      "inputs": [
        {
          "internalType": "uint256",
          "name": "id",
          "type": "uint256"
        }
      ],
      "name": "mintFish",
      "outputs": [],
      "stateMutability": "nonpayable",
      "type": "function"
    }
  ],
  "bytecode": "0x608060405234801561000f575f80fd5b5060405161040838038061040883398101604081905261002e91610053565b600280546001600160a01b0319166001600160a01b0392909216919091179055610080565b5f60208284031215610063575f80fd5b81516001600160a01b0381168114610079575f80fd5b9392505050565b61037b8061008d5f395ff3fe608060405234801561000f575f80fd5b5060043610610049575f3560e01c8062fdd58e1461004d578063e6c0be9814610073578063f2f4eb2614610088578063f8f1147d146100b3575b5f80fd5b61006061005b3660046102c3565b6100f0565b6040519081526020015b60405180910390f35b6100866100813660046102f8565b610117565b005b60025461009b906001600160a01b031681565b6040516001600160a01b03909116815260200161006a565b6100e06100c13660046102c3565b600160209081525f928352604080842090915290825290205460ff1681565b604051901515815260200161006a565b5f818152602081815260408083206001600160a01b03861684529091529020545b92915050565b600254604051639d9b4cbf60e01b81523360048201525f916001600160a01b031690639d9b4cbf90602401602060405180830381865afa15801561015d573d5f803e3d5ffd5b505050506040513d601f19601f82011682018060405250810190610181919061030f565b9050816001036101d05760968110156101d05760405162461bcd60e51b815260206004820152600c60248201526b04275747568203135302058560a41b60448201526064015b60405180910390fd5b8160030361021a576107d081101561021a5760405162461bcd60e51b815260206004820152600d60248201526c04275747568203230303020585609c1b60448201526064016101c7565b335f90815260016020908152604080832085845290915290205460ff16156102785760405162461bcd60e51b815260206004820152601160248201527014dd59185a081c195c9b985a081b5a5b9d607a1b60448201526064016101c7565b335f8181526001602081815260408084208785528252808420805460ff19168417905583825280842094845293905291812080549091906102ba908490610326565b90915550505050565b5f80604083850312156102d4575f80fd5b82356001600160a01b03811681146102ea575f80fd5b946020939093013593505050565b5f60208284031215610308575f80fd5b5035919050565b5f6020828403121561031f575f80fd5b5051919050565b8082018082111561011157634e487b7160e01b5f52601160045260245ffdfea26469706673582212203cb6e219db21ec61950b875eabdfb250d60317a750d363dfc9a810bc4c54967864736f6c63430008180033",
  "linkReferences": {},
  "deployedLinkReferences": {}
}