{
  "_format": "hh-sol-artifact-1",
  "contractName": "CeloCatchToken",
  "sourceName": "contracts/CeloCatchToken.sol",
  "abi": [
    {
      "inputs": [
        {
          "internalType": "address",
          "name": "_nft",
          "type": "address"
        }
      ],
      "stateMutability": "nonpayable",
      "type": "constructor"
    },
    {
      "inputs": [
        {
          "internalType": "address",
          "name": "spender",
          "type": "address"
        },
        {
          "internalType": "uint256",
          "name": "allowance",
          "type": "uint256"
        },
        {
          "internalType": "uint256",
          "name": "needed",
          "type": "uint256"
        }
      ],
      "name": "ERC20InsufficientAllowance",
      "type": "error"
    },
    {
      "inputs": [
        {
          "internalType": "address",
          "name": "sender",
          "type": "address"
        },
        {
          "internalType": "uint256",
          "name": "balance",
          "type": "uint256"
        },
        {
          "internalType": "uint256",
          "name": "needed",
          "type": "uint256"
        }
      ],
      "name": "ERC20InsufficientBalance",
      "type": "error"
    },
    {
      "inputs": [
        {
          "internalType": "address",
          "name": "approver",
          "type": "address"
        }
      ],
      "name": "ERC20InvalidApprover",
      "type": "error"
    },
    {
      "inputs": [
        {
          "internalType": "address",
          "name": "receiver",
          "type": "address"
        }
      ],
      "name": "ERC20InvalidReceiver",
      "type": "error"
    },
    {
      "inputs": [
        {
          "internalType": "address",
          "name": "sender",
          "type": "address"
        }
      ],
      "name": "ERC20InvalidSender",
      "type": "error"
    },
    {
      "inputs": [
        {
          "internalType": "address",
          "name": "spender",
          "type": "address"
        }
      ],
      "name": "ERC20InvalidSpender",
      "type": "error"
    },
    {
      "inputs": [
        {
          "internalType": "address",
          "name": "owner",
          "type": "address"
        }
      ],
      "name": "OwnableInvalidOwner",
      "type": "error"
    },
    {
      "inputs": [
        {
          "internalType": "address",
          "name": "account",
          "type": "address"
        }
      ],
      "name": "OwnableUnauthorizedAccount",
      "type": "error"
    },
    {
      "anonymous": false,
      "inputs": [
        {
          "indexed": true,
          "internalType": "address",
          "name": "owner",
          "type": "address"
        },
        {
          "indexed": true,
          "internalType": "address",
          "name": "spender",
          "type": "address"
        },
        {
          "indexed": false,
          "internalType": "uint256",
          "name": "value",
          "type": "uint256"
        }
      ],
      "name": "Approval",
      "type": "event"
    },
    {
      "anonymous": false,
      "inputs": [
        {
          "indexed": true,
          "internalType": "address",
          "name": "previousOwner",
          "type": "address"
        },
        {
          "indexed": true,
          "internalType": "address",
          "name": "newOwner",
          "type": "address"
        }
      ],
      "name": "OwnershipTransferred",
      "type": "event"
    },
    {
      "anonymous": false,
      "inputs": [
        {
          "indexed": true,
          "internalType": "address",
          "name": "from",
          "type": "address"
        },
        {
          "indexed": true,
          "internalType": "address",
          "name": "to",
          "type": "address"
        },
        {
          "indexed": false,
          "internalType": "uint256",
          "name": "value",
          "type": "uint256"
        }
      ],
      "name": "Transfer",
      "type": "event"
    },
    {
      "inputs": [
        {
          "internalType": "address",
          "name": "owner",
          "type": "address"
        },
        {
          "internalType": "address",
          "name": "spender",
          "type": "address"
        }
      ],
      "name": "allowance",
      "outputs": [
        {
          "internalType": "uint256",
          "name": "",
          "type": "uint256"
        }
      ],
      "stateMutability": "view",
      "type": "function"
    },
    {
      "inputs": [
        {
          "internalType": "address",
          "name": "spender",
          "type": "address"
        },
        {
          "internalType": "uint256",
          "name": "value",
          "type": "uint256"
        }
      ],
      "name": "approve",
      "outputs": [
        {
          "internalType": "bool",
          "name": "",
          "type": "bool"
        }
      ],
      "stateMutability": "nonpayable",
      "type": "function"
    },
    {
      "inputs": [
        {
          "internalType": "address",
          "name": "account",
          "type": "address"
        }
      ],
      "name": "balanceOf",
      "outputs": [
        {
          "internalType": "uint256",
          "name": "",
          "type": "uint256"
        }
      ],
      "stateMutability": "view",
      "type": "function"
    },
    {
      "inputs": [
        {
          "internalType": "uint256",
          "name": "fishId",
          "type": "uint256"
        }
      ],
      "name": "claimReward",
      "outputs": [],
      "stateMutability": "nonpayable",
      "type": "function"
    },
    {
      "inputs": [
        {
          "internalType": "address",
          "name": "",
          "type": "address"
        },
        {
          "internalType": "uint256",
          "name": "",
          "type": "uint256"
        }
      ],
      "name": "claimed",
      "outputs": [
        {
          "internalType": "bool",
          "name": "",
          "type": "bool"
        }
      ],
      "stateMutability": "view",
      "type": "function"
    },
    {
      "inputs": [],
      "name": "decimals",
      "outputs": [
        {
          "internalType": "uint8",
          "name": "",
          "type": "uint8"
        }
      ],
      "stateMutability": "view",
      "type": "function"
    },
    {
      "inputs": [
        {
          "internalType": "uint256",
          "name": "",
          "type": "uint256"
        }
      ],
      "name": "isClaimActive",
      "outputs": [
        {
          "internalType": "bool",
          "name": "",
          "type": "bool"
        }
      ],
      "stateMutability": "view",
      "type": "function"
    },
    {
      "inputs": [],
      "name": "name",
      "outputs": [
        {
          "internalType": "string",
          "name": "",
          "type": "string"
        }
      ],
      "stateMutability": "view",
      "type": "function"
    },
    {
      "inputs": [],
      "name": "nft",
      "outputs": [
        {
          "internalType": "contract INFT",
          "name": "",
          "type": "address"
        }
      ],
      "stateMutability": "view",
      "type": "function"
    },
    {
      "inputs": [],
      "name": "owner",
      "outputs": [
        {
          "internalType": "address",
          "name": "",
          "type": "address"
        }
      ],
      "stateMutability": "view",
      "type": "function"
    },
    {
      "inputs": [],
      "name": "renounceOwnership",
      "outputs": [],
      "stateMutability": "nonpayable",
      "type": "function"
    },
    {
      "inputs": [],
      "name": "symbol",
      "outputs": [
        {
          "internalType": "string",
          "name": "",
          "type": "string"
        }
      ],
      "stateMutability": "view",
      "type": "function"
    },
    {
      "inputs": [
        {
          "internalType": "uint256",
          "name": "fishId",
          "type": "uint256"
        },
        {
          "internalType": "bool",
          "name": "status",
          "type": "bool"
        }
      ],
      "name": "toggleClaimStatus",
      "outputs": [],
      "stateMutability": "nonpayable",
      "type": "function"
    },
    {
      "inputs": [],
      "name": "totalSupply",
      "outputs": [
        {
          "internalType": "uint256",
          "name": "",
          "type": "uint256"
        }
      ],
      "stateMutability": "view",
      "type": "function"
    },
    {
      "inputs": [
        {
          "internalType": "address",
          "name": "to",
          "type": "address"
        },
        {
          "internalType": "uint256",
          "name": "value",
          "type": "uint256"
        }
      ],
      "name": "transfer",
      "outputs": [
        {
          "internalType": "bool",
          "name": "",
          "type": "bool"
        }
      ],
      "stateMutability": "nonpayable",
      "type": "function"
    },
    {
      "inputs": [
        {
          "internalType": "address",
          "name": "from",
          "type": "address"
        },
        {
          "internalType": "address",
          "name": "to",
          "type": "address"
        },
        {
          "internalType": "uint256",
          "name": "value",
          "type": "uint256"
        }
      ],
      "name": "transferFrom",
      "outputs": [
        {
          "internalType": "bool",
          "name": "",
          "type": "bool"
        }
      ],
      "stateMutability": "nonpayable",
      "type": "function"
    },
    {
      "inputs": [
        {
          "internalType": "address",
          "name": "newOwner",
          "type": "address"
        }
      ],
      "name": "transferOwnership",
      "outputs": [],
      "stateMutability": "nonpayable",
      "type": "function"
    }
  ],
  "bytecode": "0x608060405234801562000010575f80fd5b5060405162000f8538038062000f85833981016040819052620000339162000149565b336040518060400160405280600a815260200169086cad8de4086c2e8c6d60b31b8152506040518060400160405280600581526020016408682a886960db1b815250816003908162000086919062000216565b50600462000095828262000216565b5050506001600160a01b038116620000c657604051631e4fbdf760e01b81525f600482015260240160405180910390fd5b620000d181620000f8565b50600680546001600160a01b0319166001600160a01b0392909216919091179055620002e2565b600580546001600160a01b038381166001600160a01b0319831681179093556040519116919082907f8be0079c531659141344cd1fd0a4f28419497f9722a3daafe3b4186f6b6457e0905f90a35050565b5f602082840312156200015a575f80fd5b81516001600160a01b038116811462000171575f80fd5b9392505050565b634e487b7160e01b5f52604160045260245ffd5b600181811c90821680620001a157607f821691505b602082108103620001c057634e487b7160e01b5f52602260045260245ffd5b50919050565b601f8211156200021157805f5260205f20601f840160051c81016020851015620001ed5750805b601f840160051c820191505b818110156200020e575f8155600101620001f9565b50505b505050565b81516001600160401b0381111562000232576200023262000178565b6200024a816200024384546200018c565b84620001c6565b602080601f83116001811462000280575f8415620002685750858301515b5f19600386901b1c1916600185901b178555620002da565b5f85815260208120601f198616915b82811015620002b0578886015182559484019460019091019084016200028f565b5085821015620002ce57878501515f19600388901b60f8161c191681555b505060018460011b0185555b505050505050565b610c9580620002f05f395ff3fe608060405234801561000f575f80fd5b5060043610610106575f3560e01c80636d51b4061161009e57806395d89b411161006e57806395d89b411461024f578063a9059cbb14610257578063ae169a501461026a578063dd62ed3e1461027d578063f2fde38b146102b5575f80fd5b80636d51b406146101ec57806370a082311461020e578063715018a6146102365780638da5cb5b1461023e575f80fd5b806323b872dd116100d957806323b872dd14610172578063313ce5671461018557806347ccca02146101945780634dd6c8de146101bf575f80fd5b806306fdde031461010a578063095ea7b314610128578063114cefab1461014b57806318160ddd14610160575b5f80fd5b6101126102c8565b60405161011f9190610982565b60405180910390f35b61013b6101363660046109e9565b610358565b604051901515815260200161011f565b61015e610159366004610a11565b610371565b005b6002545b60405190815260200161011f565b61013b610180366004610a43565b610398565b6040516012815260200161011f565b6006546101a7906001600160a01b031681565b6040516001600160a01b03909116815260200161011f565b61013b6101cd3660046109e9565b600760209081525f928352604080842090915290825290205460ff1681565b61013b6101fa366004610a7c565b60086020525f908152604090205460ff1681565b61016461021c366004610a93565b6001600160a01b03165f9081526020819052604090205490565b61015e6103bb565b6005546001600160a01b03166101a7565b6101126103ce565b61013b6102653660046109e9565b6103dd565b61015e610278366004610a7c565b6103ea565b61016461028b366004610ab3565b6001600160a01b039182165f90815260016020908152604080832093909416825291909152205490565b61015e6102c3366004610a93565b6105af565b6060600380546102d790610ae4565b80601f016020809104026020016040519081016040528092919081815260200182805461030390610ae4565b801561034e5780601f106103255761010080835404028352916020019161034e565b820191905f5260205f20905b81548152906001019060200180831161033157829003601f168201915b5050505050905090565b5f336103658185856105e9565b60019150505b92915050565b6103796105fb565b5f91825260086020526040909120805460ff1916911515919091179055565b5f336103a5858285610628565b6103b08585856106a4565b506001949350505050565b6103c36105fb565b6103cc5f610701565b565b6060600480546102d790610ae4565b5f336103658185856106a4565b5f8181526008602052604090205460ff1661044c5760405162461bcd60e51b815260206004820152601d60248201527f4b6c61696d2062656c756d20646962756b61206f6c65682061646d696e00000060448201526064015b60405180910390fd5b600654604051627eeac760e11b8152336004820152602481018390525f916001600160a01b03169062fdd58e90604401602060405180830381865afa158015610497573d5f803e3d5ffd5b505050506040513d601f19601f820116820180604052508101906104bb9190610b1c565b116104ff5760405162461bcd60e51b81526020600482015260146024820152732a34b230b590383ab73cb09027232a1024b5b0b760611b6044820152606401610443565b335f90815260076020908152604080832084845290915290205460ff16156105605760405162461bcd60e51b815260206004820152601460248201527314995dd85c99081cdd59185a08191a585b589a5b60621b6044820152606401610443565b335f8181526007602090815260408083208584529091529020805460ff191660011790556105ac90610590601290565b61059b90600a610c27565b6105a7906103e8610c35565b610752565b50565b6105b76105fb565b6001600160a01b0381166105e057604051631e4fbdf760e01b81525f6004820152602401610443565b6105ac81610701565b6105f6838383600161078a565b505050565b6005546001600160a01b031633146103cc5760405163118cdaa760e01b8152336004820152602401610443565b6001600160a01b038381165f908152600160209081526040808320938616835292905220545f1981101561069e578181101561069057604051637dc7a0d960e11b81526001600160a01b03841660048201526024810182905260448101839052606401610443565b61069e84848484035f61078a565b50505050565b6001600160a01b0383166106cd57604051634b637e8f60e11b81525f6004820152602401610443565b6001600160a01b0382166106f65760405163ec442f0560e01b81525f6004820152602401610443565b6105f683838361085c565b600580546001600160a01b038381166001600160a01b0319831681179093556040519116919082907f8be0079c531659141344cd1fd0a4f28419497f9722a3daafe3b4186f6b6457e0905f90a35050565b6001600160a01b03821661077b5760405163ec442f0560e01b81525f6004820152602401610443565b6107865f838361085c565b5050565b6001600160a01b0384166107b35760405163e602df0560e01b81525f6004820152602401610443565b6001600160a01b0383166107dc57604051634a1406b160e11b81525f6004820152602401610443565b6001600160a01b038085165f908152600160209081526040808320938716835292905220829055801561069e57826001600160a01b0316846001600160a01b03167f8c5be1e5ebec7d5bd14f71427d1e84f3dd0314c0f7b2291e5b200ac8c7c3b9258460405161084e91815260200190565b60405180910390a350505050565b6001600160a01b038316610886578060025f82825461087b9190610c4c565b909155506108f69050565b6001600160a01b0383165f90815260208190526040902054818110156108d85760405163391434e360e21b81526001600160a01b03851660048201526024810182905260448101839052606401610443565b6001600160a01b0384165f9081526020819052604090209082900390555b6001600160a01b03821661091257600280548290039055610930565b6001600160a01b0382165f9081526020819052604090208054820190555b816001600160a01b0316836001600160a01b03167fddf252ad1be2c89b69c2b068fc378daa952ba7f163c4a11628f55a4df523b3ef8360405161097591815260200190565b60405180910390a3505050565b5f602080835283518060208501525f5b818110156109ae57858101830151858201604001528201610992565b505f604082860101526040601f19601f8301168501019250505092915050565b80356001600160a01b03811681146109e4575f80fd5b919050565b5f80604083850312156109fa575f80fd5b610a03836109ce565b946020939093013593505050565b5f8060408385031215610a22575f80fd5b8235915060208301358015158114610a38575f80fd5b809150509250929050565b5f805f60608486031215610a55575f80fd5b610a5e846109ce565b9250610a6c602085016109ce565b9150604084013590509250925092565b5f60208284031215610a8c575f80fd5b5035919050565b5f60208284031215610aa3575f80fd5b610aac826109ce565b9392505050565b5f8060408385031215610ac4575f80fd5b610acd836109ce565b9150610adb602084016109ce565b90509250929050565b600181811c90821680610af857607f821691505b602082108103610b1657634e487b7160e01b5f52602260045260245ffd5b50919050565b5f60208284031215610b2c575f80fd5b5051919050565b634e487b7160e01b5f52601160045260245ffd5b600181815b80851115610b8157815f1904821115610b6757610b67610b33565b80851615610b7457918102915b93841c9390800290610b4c565b509250929050565b5f82610b975750600161036b565b81610ba357505f61036b565b8160018114610bb95760028114610bc357610bdf565b600191505061036b565b60ff841115610bd457610bd4610b33565b50506001821b61036b565b5060208310610133831016604e8410600b8410161715610c02575081810a61036b565b610c0c8383610b47565b805f1904821115610c1f57610c1f610b33565b029392505050565b5f610aac60ff841683610b89565b808202811582820484141761036b5761036b610b33565b8082018082111561036b5761036b610b3356fea2646970667358221220d9fd9cdfe0c2dee9edd40a7504c37a03eb2c438105627d57d0d0a89235eb120464736f6c63430008180033",
  "linkReferences": {},
  "deployedLinkReferences": {}
}